{
  "_format": "hh-sol-artifact-1",
  "contractName": "NFTLands",
  "sourceName": "contracts/NFTLands.sol",
  "abi": [
    {
      "inputs": [
        {
          "internalType": "string",
          "name": "baseUri",
          "type": "string"
        }
      ],
      "stateMutability": "nonpayable",
      "type": "constructor"
    },
    {
      "anonymous": false,
      "inputs": [
        {
          "indexed": true,
          "internalType": "address",
          "name": "owner",
          "type": "address"
        },
        {
          "indexed": true,
          "internalType": "address",
          "name": "approved",
          "type": "address"
        },
        {
          "indexed": true,
          "internalType": "uint256",
          "name": "tokenId",
          "type": "uint256"
        }
      ],
      "name": "Approval",
      "type": "event"
    },
    {
      "anonymous": false,
      "inputs": [
        {
          "indexed": true,
          "internalType": "address",
          "name": "owner",
          "type": "address"
        },
        {
          "indexed": true,
          "internalType": "address",
          "name": "operator",
          "type": "address"
        },
        {
          "indexed": false,
          "internalType": "bool",
          "name": "approved",
          "type": "bool"
        }
      ],
      "name": "ApprovalForAll",
      "type": "event"
    },
    {
      "anonymous": false,
      "inputs": [
        {
          "indexed": true,
          "internalType": "address",
          "name": "from",
          "type": "address"
        },
        {
          "indexed": true,
          "internalType": "address",
          "name": "to",
          "type": "address"
        },
        {
          "indexed": true,
          "internalType": "uint256",
          "name": "tokenId",
          "type": "uint256"
        }
      ],
      "name": "Transfer",
      "type": "event"
    },
    {
      "inputs": [
        {
          "internalType": "address",
          "name": "to",
          "type": "address"
        },
        {
          "internalType": "uint256",
          "name": "tokenId",
          "type": "uint256"
        }
      ],
      "name": "approve",
      "outputs": [],
      "stateMutability": "nonpayable",
      "type": "function"
    },
    {
      "inputs": [
        {
          "internalType": "address",
          "name": "owner",
          "type": "address"
        }
      ],
      "name": "balanceOf",
      "outputs": [
        {
          "internalType": "uint256",
          "name": "",
          "type": "uint256"
        }
      ],
      "stateMutability": "view",
      "type": "function"
    },
    {
      "inputs": [
        {
          "internalType": "uint256",
          "name": "tokenId",
          "type": "uint256"
        }
      ],
      "name": "getApproved",
      "outputs": [
        {
          "internalType": "address",
          "name": "",
          "type": "address"
        }
      ],
      "stateMutability": "view",
      "type": "function"
    },
    {
      "inputs": [
        {
          "internalType": "address",
          "name": "owner",
          "type": "address"
        },
        {
          "internalType": "address",
          "name": "operator",
          "type": "address"
        }
      ],
      "name": "isApprovedForAll",
      "outputs": [
        {
          "internalType": "bool",
          "name": "",
          "type": "bool"
        }
      ],
      "stateMutability": "view",
      "type": "function"
    },
    {
      "inputs": [
        {
          "internalType": "address",
          "name": "receiver",
          "type": "address"
        }
      ],
      "name": "mintTo",
      "outputs": [
        {
          "internalType": "uint256",
          "name": "",
          "type": "uint256"
        }
      ],
      "stateMutability": "nonpayable",
      "type": "function"
    },
    {
      "inputs": [],
      "name": "name",
      "outputs": [
        {
          "internalType": "string",
          "name": "",
          "type": "string"
        }
      ],
      "stateMutability": "view",
      "type": "function"
    },
    {
      "inputs": [
        {
          "internalType": "uint256",
          "name": "tokenId",
          "type": "uint256"
        }
      ],
      "name": "ownerOf",
      "outputs": [
        {
          "internalType": "address",
          "name": "",
          "type": "address"
        }
      ],
      "stateMutability": "view",
      "type": "function"
    },
    {
      "inputs": [
        {
          "internalType": "address",
          "name": "from",
          "type": "address"
        },
        {
          "internalType": "address",
          "name": "to",
          "type": "address"
        },
        {
          "internalType": "uint256",
          "name": "tokenId",
          "type": "uint256"
        }
      ],
      "name": "safeTransferFrom",
      "outputs": [],
      "stateMutability": "nonpayable",
      "type": "function"
    },
    {
      "inputs": [
        {
          "internalType": "address",
          "name": "from",
          "type": "address"
        },
        {
          "internalType": "address",
          "name": "to",
          "type": "address"
        },
        {
          "internalType": "uint256",
          "name": "tokenId",
          "type": "uint256"
        },
        {
          "internalType": "bytes",
          "name": "_data",
          "type": "bytes"
        }
      ],
      "name": "safeTransferFrom",
      "outputs": [],
      "stateMutability": "nonpayable",
      "type": "function"
    },
    {
      "inputs": [
        {
          "internalType": "address",
          "name": "operator",
          "type": "address"
        },
        {
          "internalType": "bool",
          "name": "approved",
          "type": "bool"
        }
      ],
      "name": "setApprovalForAll",
      "outputs": [],
      "stateMutability": "nonpayable",
      "type": "function"
    },
    {
      "inputs": [
        {
          "internalType": "bytes4",
          "name": "interfaceId",
          "type": "bytes4"
        }
      ],
      "name": "supportsInterface",
      "outputs": [
        {
          "internalType": "bool",
          "name": "",
          "type": "bool"
        }
      ],
      "stateMutability": "view",
      "type": "function"
    },
    {
      "inputs": [],
      "name": "symbol",
      "outputs": [
        {
          "internalType": "string",
          "name": "",
          "type": "string"
        }
      ],
      "stateMutability": "view",
      "type": "function"
    },
    {
      "inputs": [
        {
          "internalType": "uint256",
          "name": "index",
          "type": "uint256"
        }
      ],
      "name": "tokenByIndex",
      "outputs": [
        {
          "internalType": "uint256",
          "name": "",
          "type": "uint256"
        }
      ],
      "stateMutability": "view",
      "type": "function"
    },
    {
      "inputs": [
        {
          "internalType": "address",
          "name": "owner",
          "type": "address"
        },
        {
          "internalType": "uint256",
          "name": "index",
          "type": "uint256"
        }
      ],
      "name": "tokenOfOwnerByIndex",
      "outputs": [
        {
          "internalType": "uint256",
          "name": "",
          "type": "uint256"
        }
      ],
      "stateMutability": "view",
      "type": "function"
    },
    {
      "inputs": [
        {
          "internalType": "uint256",
          "name": "tokenId",
          "type": "uint256"
        }
      ],
      "name": "tokenURI",
      "outputs": [
        {
          "internalType": "string",
          "name": "",
          "type": "string"
        }
      ],
      "stateMutability": "view",
      "type": "function"
    },
    {
      "inputs": [],
      "name": "totalSupply",
      "outputs": [
        {
          "internalType": "uint256",
          "name": "",
          "type": "uint256"
        }
      ],
      "stateMutability": "view",
      "type": "function"
    },
    {
      "inputs": [
        {
          "internalType": "address",
          "name": "from",
          "type": "address"
        },
        {
          "internalType": "address",
          "name": "to",
          "type": "address"
        },
        {
          "internalType": "uint256",
          "name": "tokenId",
          "type": "uint256"
        }
      ],
      "name": "transferFrom",
      "outputs": [],
      "stateMutability": "nonpayable",
      "type": "function"
    }
  ],
  "bytecode": "0x60806040523480156200001157600080fd5b506040516200332238038062003322833981810160405281019062000037919062000219565b6040518060400160405280600881526020017f4e46544c616e64730000000000000000000000000000000000000000000000008152506040518060400160405280600481526020017f4e46544c000000000000000000000000000000000000000000000000000000008152508160009080519060200190620000bb929190620000f7565b508060019080519060200190620000d4929190620000f7565b50505080600b9080519060200190620000ef929190620000f7565b5050620003ce565b8280546200010590620002f3565b90600052602060002090601f01602090048101928262000129576000855562000175565b82601f106200014457805160ff191683800117855562000175565b8280016001018555821562000175579182015b828111156200017457825182559160200191906001019062000157565b5b50905062000184919062000188565b5090565b5b80821115620001a357600081600090555060010162000189565b5090565b6000620001be620001b88462000287565b6200025e565b905082815260208101848484011115620001d757600080fd5b620001e4848285620002bd565b509392505050565b600082601f830112620001fe57600080fd5b815162000210848260208601620001a7565b91505092915050565b6000602082840312156200022c57600080fd5b600082015167ffffffffffffffff8111156200024757600080fd5b6200025584828501620001ec565b91505092915050565b60006200026a6200027d565b905062000278828262000329565b919050565b6000604051905090565b600067ffffffffffffffff821115620002a557620002a46200038e565b5b620002b082620003bd565b9050602081019050919050565b60005b83811015620002dd578082015181840152602081019050620002c0565b83811115620002ed576000848401525b50505050565b600060028204905060018216806200030c57607f821691505b602082108114156200032357620003226200035f565b5b50919050565b6200033482620003bd565b810181811067ffffffffffffffff821117156200035657620003556200038e565b5b80604052505050565b7f4e487b7100000000000000000000000000000000000000000000000000000000600052602260045260246000fd5b7f4e487b7100000000000000000000000000000000000000000000000000000000600052604160045260246000fd5b6000601f19601f8301169050919050565b612f4480620003de6000396000f3fe608060405234801561001057600080fd5b506004361061010b5760003560e01c80634f6ccce7116100a257806395d89b411161007157806395d89b41146102f0578063a22cb4651461030e578063b88d4fde1461032a578063c87b56dd14610346578063e985e9c5146103765761010b565b80634f6ccce7146102305780636352211e1461026057806370a0823114610290578063755edd17146102c05761010b565b806318160ddd116100de57806318160ddd146101aa57806323b872dd146101c85780632f745c59146101e457806342842e0e146102145761010b565b806301ffc9a71461011057806306fdde0314610140578063081812fc1461015e578063095ea7b31461018e575b600080fd5b61012a60048036038101906101259190612020565b6103a6565b6040516101379190612482565b60405180910390f35b610148610420565b604051610155919061249d565b60405180910390f35b61017860048036038101906101739190612072565b6104b2565b604051610185919061241b565b60405180910390f35b6101a860048036038101906101a39190611fe4565b610537565b005b6101b261064f565b6040516101bf919061269f565b60405180910390f35b6101e260048036038101906101dd9190611ede565b61065c565b005b6101fe60048036038101906101f99190611fe4565b6106bc565b60405161020b919061269f565b60405180910390f35b61022e60048036038101906102299190611ede565b610761565b005b61024a60048036038101906102459190612072565b610781565b604051610257919061269f565b60405180910390f35b61027a60048036038101906102759190612072565b610818565b604051610287919061241b565b60405180910390f35b6102aa60048036038101906102a59190611e79565b6108ca565b6040516102b7919061269f565b60405180910390f35b6102da60048036038101906102d59190611e79565b610982565b6040516102e7919061269f565b60405180910390f35b6102f86109af565b604051610305919061249d565b60405180910390f35b61032860048036038101906103239190611fa8565b610a41565b005b610344600480360381019061033f9190611f2d565b610a57565b005b610360600480360381019061035b9190612072565b610ab9565b60405161036d919061249d565b60405180910390f35b610390600480360381019061038b9190611ea2565b610b19565b60405161039d9190612482565b60405180910390f35b60007f780e9d63000000000000000000000000000000000000000000000000000000007bffffffffffffffffffffffffffffffffffffffffffffffffffffffff1916827bffffffffffffffffffffffffffffffffffffffffffffffffffffffff19161480610419575061041882610bad565b5b9050919050565b60606000805461042f906128d9565b80601f016020809104026020016040519081016040528092919081815260200182805461045b906128d9565b80156104a85780601f1061047d576101008083540402835291602001916104a8565b820191906000526020600020905b81548152906001019060200180831161048b57829003601f168201915b5050505050905090565b60006104bd82610c8f565b6104fc576040517f08c379a00000000000000000000000000000000000000000000000000000000081526004016104f39061261f565b60405180910390fd5b6004600083815260200190815260200160002060009054906101000a900473ffffffffffffffffffffffffffffffffffffffff169050919050565b600061054282610818565b90508073ffffffffffffffffffffffffffffffffffffffff168373ffffffffffffffffffffffffffffffffffffffff1614156105b3576040517f08c379a00000000000000000000000000000000000000000000000000000000081526004016105aa9061263f565b60405180910390fd5b8073ffffffffffffffffffffffffffffffffffffffff166105d2610cfb565b73ffffffffffffffffffffffffffffffffffffffff1614806106015750610600816105fb610cfb565b610b19565b5b610640576040517f08c379a00000000000000000000000000000000000000000000000000000000081526004016106379061259f565b60405180910390fd5b61064a8383610d03565b505050565b6000600880549050905090565b61066d610667610cfb565b82610dbc565b6106ac576040517f08c379a00000000000000000000000000000000000000000000000000000000081526004016106a39061265f565b60405180910390fd5b6106b7838383610e9a565b505050565b60006106c7836108ca565b8210610708576040517f08c379a00000000000000000000000000000000000000000000000000000000081526004016106ff906124bf565b60405180910390fd5b600660008473ffffffffffffffffffffffffffffffffffffffff1673ffffffffffffffffffffffffffffffffffffffff168152602001908152602001600020600083815260200190815260200160002054905092915050565b61077c83838360405180602001604052806000815250610a57565b505050565b600061078b61064f565b82106107cc576040517f08c379a00000000000000000000000000000000000000000000000000000000081526004016107c39061267f565b60405180910390fd5b60088281548110610806577f4e487b7100000000000000000000000000000000000000000000000000000000600052603260045260246000fd5b90600052602060002001549050919050565b6000806002600084815260200190815260200160002060009054906101000a900473ffffffffffffffffffffffffffffffffffffffff169050600073ffffffffffffffffffffffffffffffffffffffff168173ffffffffffffffffffffffffffffffffffffffff1614156108c1576040517f08c379a00000000000000000000000000000000000000000000000000000000081526004016108b8906125df565b60405180910390fd5b80915050919050565b60008073ffffffffffffffffffffffffffffffffffffffff168273ffffffffffffffffffffffffffffffffffffffff16141561093b576040517f08c379a0000000000000000000000000000000000000000000000000000000008152600401610932906125bf565b60405180910390fd5b600360008373ffffffffffffffffffffffffffffffffffffffff1673ffffffffffffffffffffffffffffffffffffffff168152602001908152602001600020549050919050565b600061098e600a611101565b600061099a600a611117565b90506109a68382611125565b80915050919050565b6060600180546109be906128d9565b80601f01602080910402602001604051908101604052809291908181526020018280546109ea906128d9565b8015610a375780601f10610a0c57610100808354040283529160200191610a37565b820191906000526020600020905b815481529060010190602001808311610a1a57829003601f168201915b5050505050905090565b610a53610a4c610cfb565b8383611143565b5050565b610a68610a62610cfb565b83610dbc565b610aa7576040517f08c379a0000000000000000000000000000000000000000000000000000000008152600401610a9e9061265f565b60405180910390fd5b610ab3848484846112b0565b50505050565b60606000600b8054610aca906128d9565b905011610ae65760405180602001604052806000815250610b12565b600b610af18361130c565b604051602001610b029291906123f7565b6040516020818303038152906040525b9050919050565b6000600560008473ffffffffffffffffffffffffffffffffffffffff1673ffffffffffffffffffffffffffffffffffffffff16815260200190815260200160002060008373ffffffffffffffffffffffffffffffffffffffff1673ffffffffffffffffffffffffffffffffffffffff16815260200190815260200160002060009054906101000a900460ff16905092915050565b60007f80ac58cd000000000000000000000000000000000000000000000000000000007bffffffffffffffffffffffffffffffffffffffffffffffffffffffff1916827bffffffffffffffffffffffffffffffffffffffffffffffffffffffff19161480610c7857507f5b5e139f000000000000000000000000000000000000000000000000000000007bffffffffffffffffffffffffffffffffffffffffffffffffffffffff1916827bffffffffffffffffffffffffffffffffffffffffffffffffffffffff1916145b80610c885750610c87826114b9565b5b9050919050565b60008073ffffffffffffffffffffffffffffffffffffffff166002600084815260200190815260200160002060009054906101000a900473ffffffffffffffffffffffffffffffffffffffff1673ffffffffffffffffffffffffffffffffffffffff1614159050919050565b600033905090565b816004600083815260200190815260200160002060006101000a81548173ffffffffffffffffffffffffffffffffffffffff021916908373ffffffffffffffffffffffffffffffffffffffff160217905550808273ffffffffffffffffffffffffffffffffffffffff16610d7683610818565b73ffffffffffffffffffffffffffffffffffffffff167f8c5be1e5ebec7d5bd14f71427d1e84f3dd0314c0f7b2291e5b200ac8c7c3b92560405160405180910390a45050565b6000610dc782610c8f565b610e06576040517f08c379a0000000000000000000000000000000000000000000000000000000008152600401610dfd9061257f565b60405180910390fd5b6000610e1183610818565b90508073ffffffffffffffffffffffffffffffffffffffff168473ffffffffffffffffffffffffffffffffffffffff161480610e8057508373ffffffffffffffffffffffffffffffffffffffff16610e68846104b2565b73ffffffffffffffffffffffffffffffffffffffff16145b80610e915750610e908185610b19565b5b91505092915050565b8273ffffffffffffffffffffffffffffffffffffffff16610eba82610818565b73ffffffffffffffffffffffffffffffffffffffff1614610f10576040517f08c379a0000000000000000000000000000000000000000000000000000000008152600401610f07906124ff565b60405180910390fd5b600073ffffffffffffffffffffffffffffffffffffffff168273ffffffffffffffffffffffffffffffffffffffff161415610f80576040517f08c379a0000000000000000000000000000000000000000000000000000000008152600401610f779061253f565b60405180910390fd5b610f8b838383611523565b610f96600082610d03565b6001600360008573ffffffffffffffffffffffffffffffffffffffff1673ffffffffffffffffffffffffffffffffffffffff1681526020019081526020016000206000828254610fe691906127ef565b925050819055506001600360008473ffffffffffffffffffffffffffffffffffffffff1673ffffffffffffffffffffffffffffffffffffffff168152602001908152602001600020600082825461103d9190612768565b92505081905550816002600083815260200190815260200160002060006101000a81548173ffffffffffffffffffffffffffffffffffffffff021916908373ffffffffffffffffffffffffffffffffffffffff160217905550808273ffffffffffffffffffffffffffffffffffffffff168473ffffffffffffffffffffffffffffffffffffffff167fddf252ad1be2c89b69c2b068fc378daa952ba7f163c4a11628f55a4df523b3ef60405160405180910390a46110fc838383611637565b505050565b6001816000016000828254019250508190555050565b600081600001549050919050565b61113f82826040518060200160405280600081525061163c565b5050565b8173ffffffffffffffffffffffffffffffffffffffff168373ffffffffffffffffffffffffffffffffffffffff1614156111b2576040517f08c379a00000000000000000000000000000000000000000000000000000000081526004016111a99061255f565b60405180910390fd5b80600560008573ffffffffffffffffffffffffffffffffffffffff1673ffffffffffffffffffffffffffffffffffffffff16815260200190815260200160002060008473ffffffffffffffffffffffffffffffffffffffff1673ffffffffffffffffffffffffffffffffffffffff16815260200190815260200160002060006101000a81548160ff0219169083151502179055508173ffffffffffffffffffffffffffffffffffffffff168373ffffffffffffffffffffffffffffffffffffffff167f17307eab39ab6107e8899845ad3d59bd9653f200f220920489ca2b5937696c31836040516112a39190612482565b60405180910390a3505050565b6112bb848484610e9a565b6112c784848484611697565b611306576040517f08c379a00000000000000000000000000000000000000000000000000000000081526004016112fd906124df565b60405180910390fd5b50505050565b60606000821415611354576040518060400160405280600181526020017f300000000000000000000000000000000000000000000000000000000000000081525090506114b4565b600082905060005b6000821461138657808061136f9061293c565b915050600a8261137f91906127be565b915061135c565b60008167ffffffffffffffff8111156113c8577f4e487b7100000000000000000000000000000000000000000000000000000000600052604160045260246000fd5b6040519080825280601f01601f1916602001820160405280156113fa5781602001600182028036833780820191505090505b5090505b600085146114ad5760018261141391906127ef565b9150600a856114229190612985565b603061142e9190612768565b60f81b81838151811061146a577f4e487b7100000000000000000000000000000000000000000000000000000000600052603260045260246000fd5b60200101907effffffffffffffffffffffffffffffffffffffffffffffffffffffffffffff1916908160001a905350600a856114a691906127be565b94506113fe565b8093505050505b919050565b60007f01ffc9a7000000000000000000000000000000000000000000000000000000007bffffffffffffffffffffffffffffffffffffffffffffffffffffffff1916827bffffffffffffffffffffffffffffffffffffffffffffffffffffffff1916149050919050565b61152e83838361182e565b600073ffffffffffffffffffffffffffffffffffffffff168373ffffffffffffffffffffffffffffffffffffffff1614156115715761156c81611833565b6115b0565b8173ffffffffffffffffffffffffffffffffffffffff168373ffffffffffffffffffffffffffffffffffffffff16146115af576115ae838261187c565b5b5b600073ffffffffffffffffffffffffffffffffffffffff168273ffffffffffffffffffffffffffffffffffffffff1614156115f3576115ee816119e9565b611632565b8273ffffffffffffffffffffffffffffffffffffffff168273ffffffffffffffffffffffffffffffffffffffff1614611631576116308282611b2c565b5b5b505050565b505050565b6116468383611bab565b6116536000848484611697565b611692576040517f08c379a0000000000000000000000000000000000000000000000000000000008152600401611689906124df565b60405180910390fd5b505050565b60006116b88473ffffffffffffffffffffffffffffffffffffffff16611d85565b15611821578373ffffffffffffffffffffffffffffffffffffffff1663150b7a026116e1610cfb565b8786866040518563ffffffff1660e01b81526004016117039493929190612436565b602060405180830381600087803b15801561171d57600080fd5b505af192505050801561174e57506040513d601f19601f8201168201806040525081019061174b9190612049565b60015b6117d1573d806000811461177e576040519150601f19603f3d011682016040523d82523d6000602084013e611783565b606091505b506000815114156117c9576040517f08c379a00000000000000000000000000000000000000000000000000000000081526004016117c0906124df565b60405180910390fd5b805181602001fd5b63150b7a0260e01b7bffffffffffffffffffffffffffffffffffffffffffffffffffffffff1916817bffffffffffffffffffffffffffffffffffffffffffffffffffffffff191614915050611826565b600190505b949350505050565b505050565b6008805490506009600083815260200190815260200160002081905550600881908060018154018082558091505060019003906000526020600020016000909190919091505550565b60006001611889846108ca565b61189391906127ef565b9050600060076000848152602001908152602001600020549050818114611978576000600660008673ffffffffffffffffffffffffffffffffffffffff1673ffffffffffffffffffffffffffffffffffffffff168152602001908152602001600020600084815260200190815260200160002054905080600660008773ffffffffffffffffffffffffffffffffffffffff1673ffffffffffffffffffffffffffffffffffffffff168152602001908152602001600020600084815260200190815260200160002081905550816007600083815260200190815260200160002081905550505b6007600084815260200190815260200160002060009055600660008573ffffffffffffffffffffffffffffffffffffffff1673ffffffffffffffffffffffffffffffffffffffff16815260200190815260200160002060008381526020019081526020016000206000905550505050565b600060016008805490506119fd91906127ef565b9050600060096000848152602001908152602001600020549050600060088381548110611a53577f4e487b7100000000000000000000000000000000000000000000000000000000600052603260045260246000fd5b906000526020600020015490508060088381548110611a9b577f4e487b7100000000000000000000000000000000000000000000000000000000600052603260045260246000fd5b906000526020600020018190555081600960008381526020019081526020016000208190555060096000858152602001908152602001600020600090556008805480611b10577f4e487b7100000000000000000000000000000000000000000000000000000000600052603160045260246000fd5b6001900381819060005260206000200160009055905550505050565b6000611b37836108ca565b905081600660008573ffffffffffffffffffffffffffffffffffffffff1673ffffffffffffffffffffffffffffffffffffffff168152602001908152602001600020600083815260200190815260200160002081905550806007600084815260200190815260200160002081905550505050565b600073ffffffffffffffffffffffffffffffffffffffff168273ffffffffffffffffffffffffffffffffffffffff161415611c1b576040517f08c379a0000000000000000000000000000000000000000000000000000000008152600401611c12906125ff565b60405180910390fd5b611c2481610c8f565b15611c64576040517f08c379a0000000000000000000000000000000000000000000000000000000008152600401611c5b9061251f565b60405180910390fd5b611c7060008383611523565b6001600360008473ffffffffffffffffffffffffffffffffffffffff1673ffffffffffffffffffffffffffffffffffffffff1681526020019081526020016000206000828254611cc09190612768565b92505081905550816002600083815260200190815260200160002060006101000a81548173ffffffffffffffffffffffffffffffffffffffff021916908373ffffffffffffffffffffffffffffffffffffffff160217905550808273ffffffffffffffffffffffffffffffffffffffff16600073ffffffffffffffffffffffffffffffffffffffff167fddf252ad1be2c89b69c2b068fc378daa952ba7f163c4a11628f55a4df523b3ef60405160405180910390a4611d8160008383611637565b5050565b6000808273ffffffffffffffffffffffffffffffffffffffff163b119050919050565b6000611dbb611db6846126df565b6126ba565b905082815260208101848484011115611dd357600080fd5b611dde848285612897565b509392505050565b600081359050611df581612eb2565b92915050565b600081359050611e0a81612ec9565b92915050565b600081359050611e1f81612ee0565b92915050565b600081519050611e3481612ee0565b92915050565b600082601f830112611e4b57600080fd5b8135611e5b848260208601611da8565b91505092915050565b600081359050611e7381612ef7565b92915050565b600060208284031215611e8b57600080fd5b6000611e9984828501611de6565b91505092915050565b60008060408385031215611eb557600080fd5b6000611ec385828601611de6565b9250506020611ed485828601611de6565b9150509250929050565b600080600060608486031215611ef357600080fd5b6000611f0186828701611de6565b9350506020611f1286828701611de6565b9250506040611f2386828701611e64565b9150509250925092565b60008060008060808587031215611f4357600080fd5b6000611f5187828801611de6565b9450506020611f6287828801611de6565b9350506040611f7387828801611e64565b925050606085013567ffffffffffffffff811115611f9057600080fd5b611f9c87828801611e3a565b91505092959194509250565b60008060408385031215611fbb57600080fd5b6000611fc985828601611de6565b9250506020611fda85828601611dfb565b9150509250929050565b60008060408385031215611ff757600080fd5b600061200585828601611de6565b925050602061201685828601611e64565b9150509250929050565b60006020828403121561203257600080fd5b600061204084828501611e10565b91505092915050565b60006020828403121561205b57600080fd5b600061206984828501611e25565b91505092915050565b60006020828403121561208457600080fd5b600061209284828501611e64565b91505092915050565b6120a481612823565b82525050565b6120b381612835565b82525050565b60006120c482612725565b6120ce818561273b565b93506120de8185602086016128a6565b6120e781612a72565b840191505092915050565b60006120fd82612730565b612107818561274c565b93506121178185602086016128a6565b61212081612a72565b840191505092915050565b600061213682612730565b612140818561275d565b93506121508185602086016128a6565b80840191505092915050565b60008154612169816128d9565b612173818661275d565b9450600182166000811461218e576001811461219f576121d2565b60ff198316865281860193506121d2565b6121a885612710565b60005b838110156121ca578154818901526001820191506020810190506121ab565b838801955050505b50505092915050565b60006121e8602b8361274c565b91506121f382612a83565b604082019050919050565b600061220b60328361274c565b915061221682612ad2565b604082019050919050565b600061222e60258361274c565b915061223982612b21565b604082019050919050565b6000612251601c8361274c565b915061225c82612b70565b602082019050919050565b600061227460248361274c565b915061227f82612b99565b604082019050919050565b600061229760198361274c565b91506122a282612be8565b602082019050919050565b60006122ba602c8361274c565b91506122c582612c11565b604082019050919050565b60006122dd60388361274c565b91506122e882612c60565b604082019050919050565b6000612300602a8361274c565b915061230b82612caf565b604082019050919050565b600061232360298361274c565b915061232e82612cfe565b604082019050919050565b600061234660208361274c565b915061235182612d4d565b602082019050919050565b6000612369602c8361274c565b915061237482612d76565b604082019050919050565b600061238c60218361274c565b915061239782612dc5565b604082019050919050565b60006123af60318361274c565b91506123ba82612e14565b604082019050919050565b60006123d2602c8361274c565b91506123dd82612e63565b604082019050919050565b6123f18161288d565b82525050565b6000612403828561215c565b915061240f828461212b565b91508190509392505050565b6000602082019050612430600083018461209b565b92915050565b600060808201905061244b600083018761209b565b612458602083018661209b565b61246560408301856123e8565b818103606083015261247781846120b9565b905095945050505050565b600060208201905061249760008301846120aa565b92915050565b600060208201905081810360008301526124b781846120f2565b905092915050565b600060208201905081810360008301526124d8816121db565b9050919050565b600060208201905081810360008301526124f8816121fe565b9050919050565b6000602082019050818103600083015261251881612221565b9050919050565b6000602082019050818103600083015261253881612244565b9050919050565b6000602082019050818103600083015261255881612267565b9050919050565b600060208201905081810360008301526125788161228a565b9050919050565b60006020820190508181036000830152612598816122ad565b9050919050565b600060208201905081810360008301526125b8816122d0565b9050919050565b600060208201905081810360008301526125d8816122f3565b9050919050565b600060208201905081810360008301526125f881612316565b9050919050565b6000602082019050818103600083015261261881612339565b9050919050565b600060208201905081810360008301526126388161235c565b9050919050565b600060208201905081810360008301526126588161237f565b9050919050565b60006020820190508181036000830152612678816123a2565b9050919050565b60006020820190508181036000830152612698816123c5565b9050919050565b60006020820190506126b460008301846123e8565b92915050565b60006126c46126d5565b90506126d0828261290b565b919050565b6000604051905090565b600067ffffffffffffffff8211156126fa576126f9612a43565b5b61270382612a72565b9050602081019050919050565b60008190508160005260206000209050919050565b600081519050919050565b600081519050919050565b600082825260208201905092915050565b600082825260208201905092915050565b600081905092915050565b60006127738261288d565b915061277e8361288d565b9250827fffffffffffffffffffffffffffffffffffffffffffffffffffffffffffffffff038211156127b3576127b26129b6565b5b828201905092915050565b60006127c98261288d565b91506127d48361288d565b9250826127e4576127e36129e5565b5b828204905092915050565b60006127fa8261288d565b91506128058361288d565b925082821015612818576128176129b6565b5b828203905092915050565b600061282e8261286d565b9050919050565b60008115159050919050565b60007fffffffff0000000000000000000000000000000000000000000000000000000082169050919050565b600073ffffffffffffffffffffffffffffffffffffffff82169050919050565b6000819050919050565b82818337600083830152505050565b60005b838110156128c45780820151818401526020810190506128a9565b838111156128d3576000848401525b50505050565b600060028204905060018216806128f157607f821691505b6020821081141561290557612904612a14565b5b50919050565b61291482612a72565b810181811067ffffffffffffffff8211171561293357612932612a43565b5b80604052505050565b60006129478261288d565b91507fffffffffffffffffffffffffffffffffffffffffffffffffffffffffffffffff82141561297a576129796129b6565b5b600182019050919050565b60006129908261288d565b915061299b8361288d565b9250826129ab576129aa6129e5565b5b828206905092915050565b7f4e487b7100000000000000000000000000000000000000000000000000000000600052601160045260246000fd5b7f4e487b7100000000000000000000000000000000000000000000000000000000600052601260045260246000fd5b7f4e487b7100000000000000000000000000000000000000000000000000000000600052602260045260246000fd5b7f4e487b7100000000000000000000000000000000000000000000000000000000600052604160045260246000fd5b6000601f19601f8301169050919050565b7f455243373231456e756d657261626c653a206f776e657220696e646578206f7560008201527f74206f6620626f756e6473000000000000000000000000000000000000000000602082015250565b7f4552433732313a207472616e7366657220746f206e6f6e20455243373231526560008201527f63656976657220696d706c656d656e7465720000000000000000000000000000602082015250565b7f4552433732313a207472616e736665722066726f6d20696e636f72726563742060008201527f6f776e6572000000000000000000000000000000000000000000000000000000602082015250565b7f4552433732313a20746f6b656e20616c7265616479206d696e74656400000000600082015250565b7f4552433732313a207472616e7366657220746f20746865207a65726f2061646460008201527f7265737300000000000000000000000000000000000000000000000000000000602082015250565b7f4552433732313a20617070726f766520746f2063616c6c657200000000000000600082015250565b7f4552433732313a206f70657261746f7220717565727920666f72206e6f6e657860008201527f697374656e7420746f6b656e0000000000000000000000000000000000000000602082015250565b7f4552433732313a20617070726f76652063616c6c6572206973206e6f74206f7760008201527f6e6572206e6f7220617070726f76656420666f7220616c6c0000000000000000602082015250565b7f4552433732313a2062616c616e636520717565727920666f7220746865207a6560008201527f726f206164647265737300000000000000000000000000000000000000000000602082015250565b7f4552433732313a206f776e657220717565727920666f72206e6f6e657869737460008201527f656e7420746f6b656e0000000000000000000000000000000000000000000000602082015250565b7f4552433732313a206d696e7420746f20746865207a65726f2061646472657373600082015250565b7f4552433732313a20617070726f76656420717565727920666f72206e6f6e657860008201527f697374656e7420746f6b656e0000000000000000000000000000000000000000602082015250565b7f4552433732313a20617070726f76616c20746f2063757272656e74206f776e6560008201527f7200000000000000000000000000000000000000000000000000000000000000602082015250565b7f4552433732313a207472616e736665722063616c6c6572206973206e6f74206f60008201527f776e6572206e6f7220617070726f766564000000000000000000000000000000602082015250565b7f455243373231456e756d657261626c653a20676c6f62616c20696e646578206f60008201527f7574206f6620626f756e64730000000000000000000000000000000000000000602082015250565b612ebb81612823565b8114612ec657600080fd5b50565b612ed281612835565b8114612edd57600080fd5b50565b612ee981612841565b8114612ef457600080fd5b50565b612f008161288d565b8114612f0b57600080fd5b5056fea26469706673582212204fb92dfc0329a69f8056c6cff52fd79e4edca14268b6b40bc34aab92485df51164736f6c63430008040033",
  "linkReferences": {},
  "deployedLinkReferences": {}
}